{
  "abi": [
    {
      "inputs": [
        {
          "internalType": "uint256",
          "name": "_kg",
          "type": "uint256"
        },
        {
          "internalType": "address",
          "name": "_investor",
          "type": "address"
        },
        {
          "internalType": "uint256",
          "name": "_locktime",
          "type": "uint256"
        }
      ],
      "stateMutability": "nonpayable",
      "type": "constructor"
    },
    {
      "inputs": [
        {
          "internalType": "address",
          "name": "future",
          "type": "address"
        }
      ],
      "name": "BurnContract",
      "type": "error"
    },
    {
      "inputs": [
        {
          "internalType": "uint256",
          "name": "locktime",
          "type": "uint256"
        }
      ],
      "name": "Locktime",
      "type": "error"
    },
    {
      "inputs": [],
      "name": "Unauthorized",
      "type": "error"
    },
    {
      "inputs": [
        {
          "internalType": "address",
          "name": "investor",
          "type": "address"
        }
      ],
      "name": "ZeroAddress",
      "type": "error"
    },
    {
      "anonymous": false,
      "inputs": [
        {
          "indexed": true,
          "internalType": "uint256",
          "name": "kg",
          "type": "uint256"
        },
        {
          "indexed": true,
          "internalType": "address",
          "name": "investor",
          "type": "address"
        }
      ],
      "name": "Withdraw",
      "type": "event"
    },
    {
      "inputs": [],
      "name": "burn",
      "outputs": [
        {
          "internalType": "bool",
          "name": "",
          "type": "bool"
        }
      ],
      "stateMutability": "view",
      "type": "function"
    },
    {
      "inputs": [],
      "name": "dao",
      "outputs": [
        {
          "internalType": "address",
          "name": "",
          "type": "address"
        }
      ],
      "stateMutability": "view",
      "type": "function"
    },
    {
      "inputs": [],
      "name": "getKg",
      "outputs": [
        {
          "internalType": "uint256",
          "name": "",
          "type": "uint256"
        }
      ],
      "stateMutability": "view",
      "type": "function"
    },
    {
      "inputs": [],
      "name": "getLockTime",
      "outputs": [
        {
          "internalType": "uint256",
          "name": "",
          "type": "uint256"
        }
      ],
      "stateMutability": "view",
      "type": "function"
    },
    {
      "inputs": [],
      "name": "investor",
      "outputs": [
        {
          "internalType": "address",
          "name": "",
          "type": "address"
        }
      ],
      "stateMutability": "view",
      "type": "function"
    },
    {
      "inputs": [
        {
          "internalType": "uint256",
          "name": "amount",
          "type": "uint256"
        }
      ],
      "name": "sell",
      "outputs": [],
      "stateMutability": "nonpayable",
      "type": "function"
    },
    {
      "inputs": [
        {
          "internalType": "address",
          "name": "newInvestor",
          "type": "address"
        }
      ],
      "name": "swap",
      "outputs": [],
      "stateMutability": "nonpayable",
      "type": "function"
    },
    {
      "inputs": [],
      "name": "withdraw",
      "outputs": [],
      "stateMutability": "nonpayable",
      "type": "function"
    }
  ],
  "bytecode": {
    "object": "0x6101006040526000805460ff60a81b1916905534801561001e57600080fd5b506040516107c73803806107c783398101604081905261003d916100df565b8282338383838383838383836001600160a01b0383166100925760405162461bcd60e51b815260206004820152600c60248201526b5a45524f5f4144445245535360a01b604482015260640160405180910390fd5b61009c8143610125565b60a052506001600160a01b039081166080819052600080546001600160a01b0319169390921692909217905560e05260c0525061014c9950505050505050505050565b6000806000606084860312156100f457600080fd5b835160208501519093506001600160a01b038116811461011357600080fd5b80925050604084015190509250925092565b8082018082111561014657634e487b7160e01b600052601160045260246000fd5b92915050565b60805160a05160c05160e0516106126101b56000396000818160df015261042a01526000818161012a01528181610265015281816102bb015261038801526000818161015f015281816104cb01526104f70152600081816102f101526103b501526106126000f3fe608060405234801561001057600080fd5b50600436106100885760003560e01c806344df8e701161005b57806344df8e70146101015780637628132914610125578063c0a4d64d1461015a578063e4849b321461018157600080fd5b806303438dd01461008d5780631e0018d6146100a25780633ccfd60b146100d25780634162169f146100da575b600080fd5b6100a061009b36600461056c565b610194565b005b6000546100b5906001600160a01b031681565b6040516001600160a01b0390911681526020015b60405180910390f35b6100a06101be565b6100b57f000000000000000000000000000000000000000000000000000000000000000081565b60005461011590600160a01b900460ff1681565b60405190151581526020016100c9565b61014c7f000000000000000000000000000000000000000000000000000000000000000081565b6040519081526020016100c9565b61014c7f000000000000000000000000000000000000000000000000000000000000000081565b6100a061018f36600461059c565b61035e565b61019c610416565b600080546001600160a01b0319166001600160a01b0392909216919091179055565b600054600160a81b900460ff161561020d5760405162461bcd60e51b815260206004820152600d60248201526c4e4f5f5245454e5452414e435960981b60448201526064015b60405180910390fd5b6000805460ff60a81b1916600160a81b179055610228610469565b610230610496565b6102386104c9565b6102506000805460ff60a01b1916600160a01b179055565b600080546040516001600160a01b03909116917f0000000000000000000000000000000000000000000000000000000000000000917f8353ffcac0876ad14e226d9783c04540bfebf13871e868157d2a391cad98e9189190a360005460405163a140ae2360e01b81527f000000000000000000000000000000000000000000000000000000000000000060048201526001600160a01b0391821660248201527f00000000000000000000000000000000000000000000000000000000000000009091169063a140ae2390604401600060405180830381600087803b15801561033757600080fd5b505af115801561034b573d6000803e3d6000fd5b50506000805460ff60a81b191690555050565b610366610496565b6000546040516324ce9d2760e01b81526001600160a01b0391821660048201527f00000000000000000000000000000000000000000000000000000000000000006024820152604481018390527f0000000000000000000000000000000000000000000000000000000000000000909116906324ce9d2790606401600060405180830381600087803b1580156103fb57600080fd5b505af115801561040f573d6000803e3d6000fd5b5050505050565b61041f33610537565b336001600160a01b037f00000000000000000000000000000000000000000000000000000000000000001614610467576040516282b42960e81b815260040160405180910390fd5b565b600054600160a01b900460ff161561046757604051631251465160e21b8152306004820152602401610204565b61049f33610537565b6000546001600160a01b03163314610467576040516282b42960e81b815260040160405180910390fd5b7f00000000000000000000000000000000000000000000000000000000000000004310156104675761051b437f00000000000000000000000000000000000000000000000000000000000000006105b5565b60405163ce1b725160e01b815260040161020491815260200190565b6001600160a01b03811661056957604051633202e20d60e21b81526001600160a01b0382166004820152602401610204565b50565b60006020828403121561057e57600080fd5b81356001600160a01b038116811461059557600080fd5b9392505050565b6000602082840312156105ae57600080fd5b5035919050565b818103818111156105d657634e487b7160e01b600052601160045260246000fd5b9291505056fea26469706673582212200687691eb0592241e6cd36163dd0f8c99490ef0b4472c02291bf7c68b290a64d64736f6c63430008120033",
    "linkReferences": {}
  },
  "methodIdentifiers": {
    "burn()": "44df8e70",
    "dao()": "4162169f",
    "getKg()": "76281329",
    "getLockTime()": "c0a4d64d",
    "investor()": "1e0018d6",
    "sell(uint256)": "e4849b32",
    "swap(address)": "03438dd0",
    "withdraw()": "3ccfd60b"
  },
  "id": 25
}