{
  "abi": [
    {
      "inputs": [
        {
          "internalType": "address[]",
          "name": "_tokens",
          "type": "address[]"
        },
        {
          "internalType": "uint8[]",
          "name": "_decimals",
          "type": "uint8[]"
        },
        {
          "internalType": "uint256",
          "name": "_locktime",
          "type": "uint256"
        },
        {
          "internalType": "uint256",
          "name": "_kgSupply",
          "type": "uint256"
        },
        {
          "internalType": "uint256",
          "name": "_buyPrice",
          "type": "uint256"
        },
        {
          "internalType": "uint256",
          "name": "_sellPrice",
          "type": "uint256"
        },
        {
          "internalType": "bool",
          "name": "_active",
          "type": "bool"
        },
        {
          "internalType": "address",
          "name": "_dao",
          "type": "address"
        },
        {
          "internalType": "address",
          "name": "_cow",
          "type": "address"
        }
      ],
      "stateMutability": "nonpayable",
      "type": "constructor"
    },
    {
      "inputs": [
        {
          "internalType": "address",
          "name": "future",
          "type": "address"
        }
      ],
      "name": "BurnContract",
      "type": "error"
    },
    {
      "inputs": [],
      "name": "InternalError",
      "type": "error"
    },
    {
      "inputs": [
        {
          "internalType": "address",
          "name": "future",
          "type": "address"
        },
        {
          "internalType": "address",
          "name": "investor",
          "type": "address"
        }
      ],
      "name": "InvalidOwnership",
      "type": "error"
    },
    {
      "inputs": [
        {
          "internalType": "address",
          "name": "token",
          "type": "address"
        }
      ],
      "name": "InvalidToken",
      "type": "error"
    },
    {
      "inputs": [],
      "name": "NoReentrancy",
      "type": "error"
    },
    {
      "inputs": [],
      "name": "OrderNotFound",
      "type": "error"
    },
    {
      "inputs": [
        {
          "internalType": "uint256",
          "name": "x",
          "type": "uint256"
        },
        {
          "internalType": "uint256",
          "name": "y",
          "type": "uint256"
        }
      ],
      "name": "PRBMath__MulDiv18Overflow",
      "type": "error"
    },
    {
      "inputs": [
        {
          "internalType": "uint256",
          "name": "x",
          "type": "uint256"
        },
        {
          "internalType": "uint256",
          "name": "y",
          "type": "uint256"
        },
        {
          "internalType": "uint256",
          "name": "denominator",
          "type": "uint256"
        }
      ],
      "name": "PRBMath__MulDivOverflow",
      "type": "error"
    },
    {
      "inputs": [],
      "name": "Unauthorized",
      "type": "error"
    },
    {
      "inputs": [
        {
          "internalType": "uint256",
          "name": "kilos",
          "type": "uint256"
        }
      ],
      "name": "UnavailableKilos",
      "type": "error"
    },
    {
      "inputs": [
        {
          "internalType": "address",
          "name": "investor",
          "type": "address"
        }
      ],
      "name": "WithoutWhitelist",
      "type": "error"
    },
    {
      "inputs": [
        {
          "internalType": "address",
          "name": "investor",
          "type": "address"
        }
      ],
      "name": "ZeroAddress",
      "type": "error"
    },
    {
      "anonymous": false,
      "inputs": [
        {
          "indexed": true,
          "internalType": "address",
          "name": "future",
          "type": "address"
        },
        {
          "indexed": true,
          "internalType": "uint256",
          "name": "amount",
          "type": "uint256"
        },
        {
          "indexed": true,
          "internalType": "address",
          "name": "investor",
          "type": "address"
        },
        {
          "indexed": false,
          "internalType": "uint256",
          "name": "locktime",
          "type": "uint256"
        }
      ],
      "name": "FutureCreated",
      "type": "event"
    },
    {
      "anonymous": false,
      "inputs": [
        {
          "indexed": false,
          "internalType": "uint256",
          "name": "totalSupply",
          "type": "uint256"
        }
      ],
      "name": "OnSale",
      "type": "event"
    },
    {
      "anonymous": false,
      "inputs": [
        {
          "indexed": true,
          "internalType": "uint256",
          "name": "amount",
          "type": "uint256"
        },
        {
          "indexed": true,
          "internalType": "address",
          "name": "investor",
          "type": "address"
        }
      ],
      "name": "TokensMinted",
      "type": "event"
    },
    {
      "anonymous": false,
      "inputs": [
        {
          "indexed": false,
          "internalType": "uint256",
          "name": "newPrice",
          "type": "uint256"
        }
      ],
      "name": "WeightPriceUpdated",
      "type": "event"
    },
    {
      "inputs": [
        {
          "internalType": "address",
          "name": "newVip",
          "type": "address"
        }
      ],
      "name": "addAddressWhitelist",
      "outputs": [],
      "stateMutability": "nonpayable",
      "type": "function"
    },
    {
      "inputs": [
        {
          "internalType": "address",
          "name": "newToken",
          "type": "address"
        },
        {
          "internalType": "uint8",
          "name": "decimal",
          "type": "uint8"
        }
      ],
      "name": "addTokens",
      "outputs": [],
      "stateMutability": "nonpayable",
      "type": "function"
    },
    {
      "inputs": [
        {
          "internalType": "address",
          "name": "tokenAddress",
          "type": "address"
        },
        {
          "internalType": "uint256",
          "name": "commodityAmount",
          "type": "uint256"
        },
        {
          "internalType": "uint256",
          "name": "amount",
          "type": "uint256"
        }
      ],
      "name": "buyOrder",
      "outputs": [],
      "stateMutability": "nonpayable",
      "type": "function"
    },
    {
      "inputs": [],
      "name": "buyOrders",
      "outputs": [
        {
          "components": [
            {
              "internalType": "uint256",
              "name": "commodityAmount",
              "type": "uint256"
            },
            {
              "internalType": "uint256",
              "name": "amount",
              "type": "uint256"
            },
            {
              "internalType": "address",
              "name": "tokenAddress",
              "type": "address"
            },
            {
              "internalType": "address",
              "name": "future",
              "type": "address"
            },
            {
              "internalType": "address",
              "name": "investor",
              "type": "address"
            },
            {
              "internalType": "enum EStorage.OrderType",
              "name": "typed",
              "type": "uint8"
            }
          ],
          "internalType": "struct EStorage.Order[]",
          "name": "",
          "type": "tuple[]"
        }
      ],
      "stateMutability": "view",
      "type": "function"
    },
    {
      "inputs": [
        {
          "components": [
            {
              "internalType": "uint256",
              "name": "commodityAmount",
              "type": "uint256"
            },
            {
              "internalType": "uint256",
              "name": "amount",
              "type": "uint256"
            },
            {
              "internalType": "address",
              "name": "tokenAddress",
              "type": "address"
            },
            {
              "internalType": "address",
              "name": "future",
              "type": "address"
            },
            {
              "internalType": "address",
              "name": "investor",
              "type": "address"
            },
            {
              "internalType": "enum EStorage.OrderType",
              "name": "typed",
              "type": "uint8"
            }
          ],
          "internalType": "struct EStorage.Order",
          "name": "order",
          "type": "tuple"
        }
      ],
      "name": "cancelOrder",
      "outputs": [],
      "stateMutability": "nonpayable",
      "type": "function"
    },
    {
      "inputs": [
        {
          "internalType": "address",
          "name": "tokenAddress",
          "type": "address"
        },
        {
          "internalType": "uint256",
          "name": "amount",
          "type": "uint256"
        }
      ],
      "name": "createFuture",
      "outputs": [
        {
          "internalType": "address",
          "name": "future",
          "type": "address"
        },
        {
          "internalType": "uint256",
          "name": "kg",
          "type": "uint256"
        }
      ],
      "stateMutability": "nonpayable",
      "type": "function"
    },
    {
      "inputs": [],
      "name": "dao",
      "outputs": [
        {
          "internalType": "address",
          "name": "",
          "type": "address"
        }
      ],
      "stateMutability": "view",
      "type": "function"
    },
    {
      "inputs": [
        {
          "internalType": "address",
          "name": "novip",
          "type": "address"
        }
      ],
      "name": "delAddressWhitelist",
      "outputs": [],
      "stateMutability": "nonpayable",
      "type": "function"
    },
    {
      "inputs": [
        {
          "internalType": "address",
          "name": "noauth",
          "type": "address"
        }
      ],
      "name": "delTokens",
      "outputs": [],
      "stateMutability": "nonpayable",
      "type": "function"
    },
    {
      "inputs": [
        {
          "internalType": "uint256",
          "name": "",
          "type": "uint256"
        }
      ],
      "name": "drawer",
      "outputs": [
        {
          "internalType": "address",
          "name": "",
          "type": "address"
        }
      ],
      "stateMutability": "view",
      "type": "function"
    },
    {
      "inputs": [],
      "name": "getActivated",
      "outputs": [
        {
          "internalType": "bool",
          "name": "",
          "type": "bool"
        }
      ],
      "stateMutability": "view",
      "type": "function"
    },
    {
      "inputs": [],
      "name": "getBuyPrice",
      "outputs": [
        {
          "internalType": "uint256",
          "name": "",
          "type": "uint256"
        }
      ],
      "stateMutability": "view",
      "type": "function"
    },
    {
      "inputs": [
        {
          "internalType": "address",
          "name": "",
          "type": "address"
        }
      ],
      "name": "getContract",
      "outputs": [
        {
          "internalType": "address",
          "name": "investor",
          "type": "address"
        },
        {
          "internalType": "address",
          "name": "future",
          "type": "address"
        },
        {
          "internalType": "uint256",
          "name": "kg",
          "type": "uint256"
        },
        {
          "internalType": "bool",
          "name": "burn",
          "type": "bool"
        }
      ],
      "stateMutability": "view",
      "type": "function"
    },
    {
      "inputs": [
        {
          "internalType": "address",
          "name": "investor",
          "type": "address"
        }
      ],
      "name": "getContractsByInvestor",
      "outputs": [
        {
          "components": [
            {
              "internalType": "address",
              "name": "investor",
              "type": "address"
            },
            {
              "internalType": "address",
              "name": "future",
              "type": "address"
            },
            {
              "internalType": "uint256",
              "name": "kg",
              "type": "uint256"
            },
            {
              "internalType": "bool",
              "name": "burn",
              "type": "bool"
            }
          ],
          "internalType": "struct EStorage.Contract[]",
          "name": "",
          "type": "tuple[]"
        }
      ],
      "stateMutability": "view",
      "type": "function"
    },
    {
      "inputs": [],
      "name": "getFullDrawer",
      "outputs": [
        {
          "internalType": "address[]",
          "name": "",
          "type": "address[]"
        }
      ],
      "stateMutability": "view",
      "type": "function"
    },
    {
      "inputs": [],
      "name": "getLockTime",
      "outputs": [
        {
          "internalType": "uint256",
          "name": "",
          "type": "uint256"
        }
      ],
      "stateMutability": "view",
      "type": "function"
    },
    {
      "inputs": [],
      "name": "getSellPrice",
      "outputs": [
        {
          "internalType": "uint256",
          "name": "",
          "type": "uint256"
        }
      ],
      "stateMutability": "view",
      "type": "function"
    },
    {
      "inputs": [],
      "name": "getTokens",
      "outputs": [
        {
          "internalType": "address[]",
          "name": "",
          "type": "address[]"
        }
      ],
      "stateMutability": "view",
      "type": "function"
    },
    {
      "inputs": [],
      "name": "getTotalSupplyKG",
      "outputs": [
        {
          "internalType": "uint256",
          "name": "",
          "type": "uint256"
        }
      ],
      "stateMutability": "view",
      "type": "function"
    },
    {
      "inputs": [],
      "name": "getWhiteList",
      "outputs": [
        {
          "internalType": "address[]",
          "name": "",
          "type": "address[]"
        }
      ],
      "stateMutability": "view",
      "type": "function"
    },
    {
      "inputs": [],
      "name": "getYieldFarming",
      "outputs": [
        {
          "internalType": "uint256",
          "name": "",
          "type": "uint256"
        }
      ],
      "stateMutability": "view",
      "type": "function"
    },
    {
      "inputs": [
        {
          "internalType": "uint256",
          "name": "commodityAmount",
          "type": "uint256"
        },
        {
          "internalType": "address",
          "name": "investor",
          "type": "address"
        }
      ],
      "name": "mintToken",
      "outputs": [],
      "stateMutability": "nonpayable",
      "type": "function"
    },
    {
      "inputs": [
        {
          "internalType": "uint256",
          "name": "",
          "type": "uint256"
        }
      ],
      "name": "orderBook",
      "outputs": [
        {
          "internalType": "uint256",
          "name": "commodityAmount",
          "type": "uint256"
        },
        {
          "internalType": "uint256",
          "name": "amount",
          "type": "uint256"
        },
        {
          "internalType": "address",
          "name": "tokenAddress",
          "type": "address"
        },
        {
          "internalType": "address",
          "name": "future",
          "type": "address"
        },
        {
          "internalType": "address",
          "name": "investor",
          "type": "address"
        },
        {
          "internalType": "enum EStorage.OrderType",
          "name": "typed",
          "type": "uint8"
        }
      ],
      "stateMutability": "view",
      "type": "function"
    },
    {
      "inputs": [],
      "name": "owner",
      "outputs": [
        {
          "internalType": "address",
          "name": "",
          "type": "address"
        }
      ],
      "stateMutability": "view",
      "type": "function"
    },
    {
      "inputs": [
        {
          "internalType": "address",
          "name": "investor",
          "type": "address"
        },
        {
          "internalType": "uint256",
          "name": "rawCommodityAmount",
          "type": "uint256"
        },
        {
          "internalType": "uint256",
          "name": "amount",
          "type": "uint256"
        }
      ],
      "name": "sellOrder",
      "outputs": [],
      "stateMutability": "nonpayable",
      "type": "function"
    },
    {
      "inputs": [],
      "name": "sellOrders",
      "outputs": [
        {
          "components": [
            {
              "internalType": "uint256",
              "name": "commodityAmount",
              "type": "uint256"
            },
            {
              "internalType": "uint256",
              "name": "amount",
              "type": "uint256"
            },
            {
              "internalType": "address",
              "name": "tokenAddress",
              "type": "address"
            },
            {
              "internalType": "address",
              "name": "future",
              "type": "address"
            },
            {
              "internalType": "address",
              "name": "investor",
              "type": "address"
            },
            {
              "internalType": "enum EStorage.OrderType",
              "name": "typed",
              "type": "uint8"
            }
          ],
          "internalType": "struct EStorage.Order[]",
          "name": "",
          "type": "tuple[]"
        }
      ],
      "stateMutability": "view",
      "type": "function"
    },
    {
      "inputs": [
        {
          "internalType": "bool",
          "name": "state",
          "type": "bool"
        }
      ],
      "name": "updateActive",
      "outputs": [],
      "stateMutability": "nonpayable",
      "type": "function"
    },
    {
      "inputs": [
        {
          "internalType": "uint256",
          "name": "newBuyPrice",
          "type": "uint256"
        }
      ],
      "name": "updateBuyPrice",
      "outputs": [],
      "stateMutability": "nonpayable",
      "type": "function"
    },
    {
      "inputs": [
        {
          "internalType": "uint256",
          "name": "newLockTime",
          "type": "uint256"
        }
      ],
      "name": "updateLockTime",
      "outputs": [],
      "stateMutability": "nonpayable",
      "type": "function"
    },
    {
      "inputs": [
        {
          "internalType": "uint256",
          "name": "newSellPrice",
          "type": "uint256"
        }
      ],
      "name": "updateSellPrice",
      "outputs": [],
      "stateMutability": "nonpayable",
      "type": "function"
    },
    {
      "inputs": [
        {
          "internalType": "uint256",
          "name": "newYieldFarming",
          "type": "uint256"
        }
      ],
      "name": "updateYieldFarming",
      "outputs": [],
      "stateMutability": "nonpayable",
      "type": "function"
    }
  ],
  "bytecode": {
    "object": "0x60e06040523480156200001157600080fd5b5060405162003e6438038062003e6483398101604081905262000034916200039c565b8888888888888888888888888888888888888888888888888888888888888888888888888751895114620000af5760405162461bcd60e51b815260206004820152601c60248201527f544f4b454e535f444543494d414c535f4c454e4754485f4552524f520000000060448201526064015b60405180910390fd5b33620000ed5760405162461bcd60e51b815260206004820152600c60248201526b5a45524f5f4144445245535360a01b6044820152606401620000a6565b60008681556002859055600386905560048890556005805460ff19168515151790553360a0526001600160a01b03828116608052831660c0525b8951811015620002475760405180606001604052808281526020018a8381518110620001575762000157620004d0565b602002602001015160ff16815260200160011515815250600b60008c8481518110620001875762000187620004d0565b6020908102919091018101516001600160a01b03168252818101929092526040908101600020835181559183015160019092018054939091015115156101000261ffff1990931660ff9092169190911791909117905589516006908b9083908110620001f757620001f7620004d0565b60209081029190910181015182546001810184556000938452919092200180546001600160a01b0319166001600160a01b03909216919091179055806200023e81620004e6565b91505062000127565b505050505050505050505050505050505050505050505050505050505050505050505050505050505050505050506200050e565b634e487b7160e01b600052604160045260246000fd5b604051601f8201601f191681016001600160401b0381118282101715620002bc57620002bc6200027b565b604052919050565b60006001600160401b03821115620002e057620002e06200027b565b5060051b60200190565b80516001600160a01b03811681146200030257600080fd5b919050565b600082601f8301126200031957600080fd5b81516020620003326200032c83620002c4565b62000291565b82815260059290921b840181019181810190868411156200035257600080fd5b8286015b848110156200038057805160ff81168114620003725760008081fd5b835291830191830162000356565b509695505050505050565b805180151581146200030257600080fd5b60008060008060008060008060006101208a8c031215620003bc57600080fd5b89516001600160401b0380821115620003d457600080fd5b818c0191508c601f830112620003e957600080fd5b8151620003fa6200032c82620002c4565b8082825260208201915060208360051b86010192508f8311156200041d57600080fd5b6020850194505b828510156200044a576200043885620002ea565b82526020948501949091019062000424565b60208f0151909d5093505050808211156200046457600080fd5b50620004738c828d0162000307565b98505060408a0151965060608a0151955060808a0151945060a08a01519350620004a060c08b016200038b565b9250620004b060e08b01620002ea565b9150620004c16101008b01620002ea565b90509295985092959850929598565b634e487b7160e01b600052603260045260246000fd5b6000600182016200050757634e487b7160e01b600052601160045260246000fd5b5060010190565b60805160a05160c0516139186200054c600039600081816102dd01526115370152600081816103f401526120d401526000610fc701526139186000f3fe60806040523480156200001157600080fd5b50600436106200020d5760003560e01c80638da5cb5b1162000125578063c237939c11620000af578063d3e2cb08116200007a578063d3e2cb081462000515578063f1bd5afa146200052c578063fbfa4e111462000543578063fe669988146200055a57600080fd5b8063c237939c14620004d3578063cc3bd18d14620004ea578063d16423df14620004f4578063d21e3f61146200050b57600080fd5b8063aa6ca80811620000f0578063aa6ca808146200046f578063b93e25a71462000479578063beb4696614620004b0578063c0a4d64d14620004c957600080fd5b80638da5cb5b14620003ee5780639d7050011462000416578063a140ae23146200042d578063a20b6e34146200044457600080fd5b80635e678fb111620001a757806379583e22116200017257806379583e22146200037b5780637bafc8f11462000392578063863005e714620003a95780638893eb1314620003cf57600080fd5b80635e678fb1146200032c57806363c084b114620003365780636764120c146200034d578063777525d5146200036457600080fd5b806324ce9d2711620001e857806324ce9d2714620002be5780634162169f14620002d757806343d32e9c14620003185780635a64dc01146200032257600080fd5b8063018a25e8146200021257806309a9d76c146200022f5780630ad1c2fa1462000248575b600080fd5b6200021c60035481565b6040519081526020015b60405180910390f35b6200023962000571565b60405162000226919062002b08565b620002906200025936600462002b74565b600c6020526000908152604090208054600182015460028301546003909301546001600160a01b0392831693919092169160ff1684565b604080516001600160a01b039586168152949093166020850152918301521515606082015260800162000226565b620002d5620002cf36600462002b92565b620005d5565b005b620002ff7f000000000000000000000000000000000000000000000000000000000000000081565b6040516001600160a01b03909116815260200162000226565b6200021c60025481565b6200021c60005481565b620002396200087d565b620002d56200034736600462002bc8565b620008df565b620002d56200035e36600462002bf0565b62000a9a565b620002d56200037536600462002c10565b62000afe565b620002d56200038c36600462002b92565b62000b3e565b620002d5620003a336600462002c10565b62000db6565b620003c0620003ba36600462002b74565b62000df6565b60405162000226919062002c2a565b600554620003dd9060ff1681565b604051901515815260200162000226565b620002ff7f000000000000000000000000000000000000000000000000000000000000000081565b620002d56200042736600462002b74565b62000ea2565b620002d56200043e36600462002c9e565b62000f38565b6200045b6200045536600462002c10565b6200106c565b604051620002269695949392919062002d06565b62000239620010c9565b620004906200048a36600462002d4d565b6200112b565b604080516001600160a01b03909316835260208301919091520162000226565b620004ba62001613565b60405162000226919062002d7a565b6200021c60045481565b620002ff620004e436600462002c10565b62001626565b6200021c60015481565b620002d56200050536600462002b74565b62001651565b620004ba6200174c565b620002d56200052636600462002c10565b6200175a565b620002d56200053d36600462002b74565b620017ac565b620002d56200055436600462002c10565b62001883565b620002d56200056b36600462002e05565b62001892565b60606008805480602002602001604051908101604052809291908181526020018280548015620005cb57602002820191906000526020600020905b81546001600160a01b03168152600190910190602001808311620005ac575b5050505050905090565b620005e1833362001944565b60006200060d6200060a620005f68562001a2f565b670de0b6b3a7640000810680151502900390565b90565b9050600080620006208385600062001a39565b915091506200062e62002ac7565b838152600060408201523360608201526001600160a01b038716608082015260208101859052600160a0820152821562000723576200071d600983815481106200067c576200067c62002e46565b60009182526020918290206040805160c0810182526005909302909101805483526001808201549484019490945260028101546001600160a01b039081169284019290925260038101548216606084015260048101549182166080840152919260a084019160ff600160a01b9091041690811115620006ff57620006ff62002ccd565b600181111562000713576200071362002ccd565b9052508262001b1e565b62000874565b6009805460018181018355600092909252825160059091027f6e1540171b6c0c960b71a7020d9f60077f6af931a8bbf590da0223dacf75c7af810191825560208401517f6e1540171b6c0c960b71a7020d9f60077f6af931a8bbf590da0223dacf75c7b082015560408401517f6e1540171b6c0c960b71a7020d9f60077f6af931a8bbf590da0223dacf75c7b1820180546001600160a01b039283166001600160a01b03199182161790915560608601517f6e1540171b6c0c960b71a7020d9f60077f6af931a8bbf590da0223dacf75c7b28401805491841691831691909117905560808601517f6e1540171b6c0c960b71a7020d9f60077f6af931a8bbf590da0223dacf75c7b39093018054939092169083168117825560a0860151869590936001600160a81b03191690911790600160a01b9084908111156200086c576200086c62002ccd565b021790555050505b50505050505050565b60606007805480602002602001604051908101604052809291908181526020018280548015620005cb576020028201919060005260206000209081546001600160a01b03168152600190910190602001808311620005ac575050505050905090565b620008fb620008f560a083016080840162002b74565b62001f0e565b60008062000919620009133685900385018562002e82565b62001f4c565b9092509050600182151514620009385762000933620020a5565b505050565b600980546200094a9060019062002f43565b815481106200095d576200095d62002e46565b90600052602060002090600502016009828154811062000981576200098162002e46565b6000918252602090912082546005909202019081556001808301548183015560028084015490830180546001600160a01b03199081166001600160a01b0393841617909155600380860154908501805483169184169190911790556004808601805491860180549384169290941691821784555460ff600160a01b9182900416946001600160a81b031990931690911791849081111562000a265762000a2662002ccd565b0217905550905050600980548062000a425762000a4262002f59565b60008281526020812060056000199093019283020181815560018101919091556002810180546001600160a01b0319908116909155600382018054909116905560040180546001600160a81b03191690559055505050565b62000aa4620020be565b6005805460ff191682151590811790915560ff161562000afb577f6826140490b8e3cb7f1acaadc491af2c8803ed6a350ed83565db9fe625e1afe760005460405162000af291815260200190565b60405180910390a15b50565b62000b08620020be565b60028190556040518181527fb706dbfe7facb283f571a1806bb0700e192c3aa08a840b5310df8032a29030889060200162000af2565b62000b498362002114565b60008062000b5a8484600162001a39565b9150915062000b6862002ac7565b8481526001600160a01b03861660408201526000606082018190523360808301526020820185905260a0820152821562000c5d5762000c57816009848154811062000bb75762000bb762002e46565b60009182526020918290206040805160c0810182526005909302909101805483526001808201549484019490945260028101546001600160a01b039081169284019290925260038101548216606084015260048101549182166080840152919260a084019160ff600160a01b909104169081111562000c3a5762000c3a62002ccd565b600181111562000c4e5762000c4e62002ccd565b90525062001b1e565b62000dae565b6009805460018181018355600092909252825160059091027f6e1540171b6c0c960b71a7020d9f60077f6af931a8bbf590da0223dacf75c7af810191825560208401517f6e1540171b6c0c960b71a7020d9f60077f6af931a8bbf590da0223dacf75c7b082015560408401517f6e1540171b6c0c960b71a7020d9f60077f6af931a8bbf590da0223dacf75c7b1820180546001600160a01b039283166001600160a01b03199182161790915560608601517f6e1540171b6c0c960b71a7020d9f60077f6af931a8bbf590da0223dacf75c7b28401805491841691831691909117905560808601517f6e1540171b6c0c960b71a7020d9f60077f6af931a8bbf590da0223dacf75c7b39093018054939092169083168117825560a0860151869590936001600160a81b03191690911790600160a01b90849081111562000da65762000da662002ccd565b021790555050505b505050505050565b62000dc0620020be565b60038190556040518181527fb706dbfe7facb283f571a1806bb0700e192c3aa08a840b5310df8032a29030889060200162000af2565b6001600160a01b0381166000908152600a60209081526040808320805482518185028101850190935280835260609492939192909184015b8282101562000e97576000848152602090819020604080516080810182526004860290920180546001600160a01b039081168452600180830154909116848601526002820154928401929092526003015460ff1615156060830152908352909201910162000e2e565b505050509050919050565b62000eac620020be565b604080518082018252600880548252600160208084018281526001600160a01b03969096166000818152600d909252948120935184559451928101805460ff191693151593909317909255805491820181559092527ff3f7a9fe364faab93b216da50a3214154f22a0a2b415b23a84c8169e8b636ee390910180546001600160a01b0319169091179055565b600e5460ff161562000f5d57604051632c1ff44360e11b815260040160405180910390fd5b600e805460ff1916600117905562000f76813362001944565b336000908152600c60205260408120600301805460ff1916600117905562000f9e83620021b1565b604051636203b43b60e11b81526001600160a01b038481166004830152602482018390529192507f00000000000000000000000000000000000000000000000000000000000000009091169063c407687690604401600060405180830381600087803b1580156200100e57600080fd5b505af115801562001023573d6000803e3d6000fd5b50506040516001600160a01b03851692508391507f2ab6ea412c7ddf3e8a6a00a02a93d4b2c7175f0c4d942b570a1d4996299c31de90600090a35050600e805460ff1916905550565b600981815481106200107d57600080fd5b60009182526020909120600590910201805460018201546002830154600384015460049094015492945090926001600160a01b039182169290821691811690600160a01b900460ff1686565b60606006805480602002602001604051908101604052809291908181526020018280548015620005cb576020028201919060005260206000209081546001600160a01b03168152600190910190602001808311620005ac575050505050905090565b600e54600090819060ff16156200115557604051632c1ff44360e11b815260040160405180910390fd5b600e805460ff191660019081179091556001600160a01b0385166000908152600b6020526040902001546200118f9060ff16600a6200306c565b6200119c90600a6200307d565b831015620011e75760405162461bcd60e51b8152602060048201526013602482015272125394d551919250d251539517d05353d55395606a1b60448201526064015b60405180910390fd5b620011f28462002114565b620011fd8362002262565b62001208336200228b565b6200121383620022f3565b6001600160a01b0384166000908152600b60205260409020600101546200123f90849060ff1662002320565b905060008133600454604051620012569062002afa565b9283526001600160a01b0390911660208301526040820152606001604051809103906000f0801580156200128e573d6000803e3d6000fd5b509050809250600a6000336001600160a01b03166001600160a01b031681526020019081526020016000206040518060800160405280336001600160a01b03168152602001856001600160a01b0316815260200184815260200160001515815250908060018154018082558091505060019003906000526020600020906004020160009091909190915060008201518160000160006101000a8154816001600160a01b0302191690836001600160a01b0316021790555060208201518160010160006101000a8154816001600160a01b0302191690836001600160a01b031602179055506040820151816002015560608201518160030160006101000a81548160ff02191690831515021790555050506040518060800160405280336001600160a01b03168152602001846001600160a01b0316815260200183815260200160001515815250600c6000856001600160a01b03166001600160a01b0316815260200190815260200160002060008201518160000160006101000a8154816001600160a01b0302191690836001600160a01b0316021790555060208201518160010160006101000a8154816001600160a01b0302191690836001600160a01b031602179055506040820151816002015560608201518160030160006101000a81548160ff0219169083151502179055509050506007839080600181540180825580915050600190039060005260206000200160009091909190916101000a8154816001600160a01b0302191690836001600160a01b03160217905550336001600160a01b031682846001600160a01b03167f694d212a116b8917a2fa555f63e584d96a1d27090e60c509fabe73ecaa13b78d6004546040516200151291815260200190565b60405180910390a46040516323b872dd60e01b81523360048201526001600160a01b037f0000000000000000000000000000000000000000000000000000000000000000811660248301526044820186905286916000918316906323b872dd906064016020604051808303816000875af115801562001595573d6000803e3d6000fd5b505050506040513d601f19601f82011682018060405250810190620015bb919062003097565b905080620015fd5760405162461bcd60e51b815260206004820152600e60248201526d1410565351539517d1905253115160921b6044820152606401620011de565b5050600e805460ff191690555090939092509050565b606062001621600062002371565b905090565b600781815481106200163757600080fd5b6000918252602090912001546001600160a01b0316905081565b6200165b620020be565b6001600160a01b0381166000908152600d602052604090206001908101805460ff19169055600880549091620016919162002f43565b81548110620016a457620016a462002e46565b60009182526020808320909101546001600160a01b038481168452600d909252604090922054600880549290931692918110620016e557620016e562002e46565b9060005260206000200160006101000a8154816001600160a01b0302191690836001600160a01b03160217905550600880548062001727576200172762002f59565b600082815260209020810160001990810180546001600160a01b031916905501905550565b606062001621600162002371565b62001764620020be565b6064811115620017a75760405162461bcd60e51b815260206004820152600d60248201526c1253959053125117d652515311609a1b6044820152606401620011de565b600155565b620017b6620020be565b6001600160a01b0381166000908152600b602052604090206001908101805461ff0019169055600680549091620017ed9162002f43565b8154811062001800576200180062002e46565b60009182526020808320909101546001600160a01b038481168452600b90925260409092205460068054929093169291811062001841576200184162002e46565b9060005260206000200160006101000a8154816001600160a01b0302191690836001600160a01b03160217905550600680548062001727576200172762002f59565b6200188d620020be565b600455565b6200189c620020be565b6040805160608101825260068054825260ff938416602080840191825260018486018181526001600160a01b039098166000818152600b9093529582209451855591519382018054975115156101000261ffff1990981694909616939093179590951790935582549384018355919091527ff652222313e28459528d920b65115c16c04f3efc82aaedc97be59f3f377c0d3f90910180546001600160a01b0319169091179055565b6001600160a01b038082166000908152600c60205260409020546200196a9116620025de565b6200197533620025de565b6200198082620025de565b6200198b81620025de565b6001600160a01b0381166000908152600c602052604090206003015460ff161515600103620019d957604051631251465160e21b81526001600160a01b0382166004820152602401620011de565b6001600160a01b038181166000908152600c602052604090205481169083161462001a2b57604051631e6dc5ab60e31b81526001600160a01b03808316600483015283166024820152604401620011de565b5050565b6000815b92915050565b6000805b60095481101562001b125782600181111562001a5d5762001a5d62002ccd565b6009828154811062001a735762001a7362002e46565b906000526020600020906005020160040160149054906101000a900460ff16600181111562001aa65762001aa662002ccd565b0362001afd5760006009828154811062001ac45762001ac462002e46565b9060005260206000209060050201905085816000015414801562001aeb5750848160010154145b9250821562001afb575062001b16565b505b8062001b0981620030b7565b91505062001a3d565b5060005b935093915050565b600062001b2b8362002612565b9050600062001b3a8362002612565b905081801562001b475750805b1562001b575762001b57620028cb565b6080838101516001600160a01b039081166000908152600a6020908152604080832094890151606089015185168452600c909252822080546001600160a01b03191691909316179091555b815481101562001dc25784608001516001600160a01b031682828154811062001bcf5762001bcf62002e46565b60009182526020909120600490910201546001600160a01b03160362001dad5760808601516001600160a01b03166000908152600a60205260409020825483908390811062001c225762001c2262002e46565b6000918252602080832084546001808201875595855291909320600492830290930180549290910290920180546001600160a01b039283166001600160a01b031991821617825583850154828601805491909416911617909155600280830154908201556003918201549101805460ff191660ff90921615159190911790558254839162001cb09162002f43565b8154811062001cc35762001cc362002e46565b906000526020600020906004020182828154811062001ce65762001ce662002e46565b60009182526020909120825460049092020180546001600160a01b039283166001600160a01b0319918216178255600180850154908301805491909416911617909155600280830154908201556003918201549101805460ff191660ff9092161515919091179055815482908062001d625762001d6262002f59565b60008281526020812060046000199093019283020180546001600160a01b0319908116825560018201805490911690556002810191909155600301805460ff19169055905562001dc2565b8062001db981620030b7565b91505062001ba2565b5060408086015160808088015190870151602088015193516323b872dd60e01b81526001600160a01b0392831660048201529082166024820152604481019390935290916000918316906323b872dd906064016020604051808303816000875af115801562001e35573d6000803e3d6000fd5b505050506040513d601f19601f8201168201806040525081019062001e5b919062003097565b90508062001e9d5760405162461bcd60e51b815260206004820152600e60248201526d1410565351539517d1905253115160921b6044820152606401620011de565b60608601516080880151604051623438dd60e41b81526001600160a01b039182166004820152908216906303438dd090602401600060405180830381600087803b15801562001eeb57600080fd5b505af115801562001f00573d6000803e3d6000fd5b505050505050505050505050565b6001600160a01b038116158062001f2e5750336001600160a01b03821614155b1562000afb576040516282b42960e81b815260040160405180910390fd5b6000805b6009548110156200209d578260a00151600181111562001f745762001f7462002ccd565b6009828154811062001f8a5762001f8a62002e46565b906000526020600020906005020160040160149054906101000a900460ff16600181111562001fbd5762001fbd62002ccd565b03620020885760006009828154811062001fdb5762001fdb62002e46565b600091825260209091208551600590920201805490911493509050828015620020185750604084015160028201546001600160a01b039081169116145b92508280156200203c5750608084015160048201546001600160a01b039081169116145b925082801562002053575083602001518160010154145b9250828015620020775750606084015160038201546001600160a01b039081169116145b92508215620020865750915091565b505b806200209481620030b7565b91505062001f50565b509160009150565b60405163d36d896560e01b815260040160405180910390fd5b620020c933620025de565b336001600160a01b037f0000000000000000000000000000000000000000000000000000000000000000161462002112576040516282b42960e81b815260040160405180910390fd5b565b6200211f81620025de565b600160005b6006548110156200218457826001600160a01b0316600682815481106200214f576200214f62002e46565b6000918252602090912001546001600160a01b0316036200216f57600091505b806200217b81620030b7565b91505062002124565b50801562001a2b5760405163961c9a4f60e01b81526001600160a01b0383166004820152602401620011de565b600080620021d6620021c4600162001a2f565b620021d0600a62001a2f565b620028e4565b9050670de0b6b3a76400006064620022596200060a62002252620022456200223a620022028a62001a2f565b6200223362002228620022158d62001a2f565b6200222260015462001a2f565b620028ff565b620021d08962001a2f565b9062002911565b620021d08762001a2f565b6200222260025462001a2f565b85620028ff565b95945050505050565b806000541162000afb5760005460405162cad73d60e31b8152600401620011de91815260200190565b6200229681620025de565b60055460ff16151560000362000afb576001600160a01b0381166000908152600d602052604081206001015460ff161515900362000afb576040516308297e5960e31b81526001600160a01b0382166004820152602401620011de565b6200231a6200060a620023068362001a2f565b6200231360005462001a2f565b9062002923565b60005550565b60006200236a6200060a62002346620023398662001a2f565b620021d060035462001a2f565b620021d062002357600287620030d3565b6200236490600a6200306c565b62001a2f565b9392505050565b60606000805b6009548110156200240b5783600181111562002397576200239762002ccd565b60098281548110620023ad57620023ad62002e46565b906000526020600020906005020160040160149054906101000a900460ff166001811115620023e057620023e062002ccd565b03620023f65781620023f281620030b7565b9250505b806200240281620030b7565b91505062002377565b5060008167ffffffffffffffff8111156200242a576200242a62002e5c565b6040519080825280602002602001820160405280156200246757816020015b6200245362002ac7565b815260200190600190039081620024495790505b5090506000805b600954811015620025d4578560018111156200248e576200248e62002ccd565b60098281548110620024a457620024a462002e46565b906000526020600020906005020160040160149054906101000a900460ff166001811115620024d757620024d762002ccd565b03620025bf5760098181548110620024f357620024f362002e46565b60009182526020918290206040805160c0810182526005909302909101805483526001808201549484019490945260028101546001600160a01b039081169284019290925260038101548216606084015260048101549182166080840152919260a084019160ff600160a01b909104169081111562002576576200257662002ccd565b60018111156200258a576200258a62002ccd565b81525050838381518110620025a357620025a362002e46565b60200260200101819052508180620025bb90620030b7565b9250505b80620025cb81620030b7565b9150506200246e565b5090949350505050565b6001600160a01b03811662000afb57604051633202e20d60e21b81526001600160a01b0382166004820152602401620011de565b6000805b600954811015620028c2578260a0015160018111156200263a576200263a62002ccd565b6009828154811062002650576200265062002e46565b906000526020600020906005020160040160149054906101000a900460ff16600181111562002683576200268362002ccd565b03620028ad57600060098281548110620026a157620026a162002e46565b600091825260209091208551600590920201805490925014808015620026db5750604085015160028301546001600160a01b039081169116145b9050808015620026ff5750608085015160048301546001600160a01b039081169116145b905080801562002716575084602001518260010154145b90508080156200273a5750606085015160038301546001600160a01b039081169116145b90508015620028aa5760098054620027559060019062002f43565b8154811062002768576200276862002e46565b9060005260206000209060050201600984815481106200278c576200278c62002e46565b6000918252602090912082546005909202019081556001808301548183015560028084015490830180546001600160a01b03199081166001600160a01b0393841617909155600380860154908501805483169184169190911790556004808601805491860180549384169290941691821784555460ff600160a01b9182900416946001600160a81b031990931690911791849081111562002831576200283162002ccd565b021790555090505060098054806200284d576200284d62002f59565b6000828152602081206005600019909301928302018181556001818101929092556002810180546001600160a01b0319908116909155600382018054909116905560040180546001600160a81b0319169055915595945050505050565b50505b80620028b981620030b7565b91505062002616565b50600092915050565b60405163fe835e3560e01b815260040160405180910390fd5b60006200236a6200060a84670de0b6b3a76400008562002935565b60006200236a6200060a848462002a0f565b60006200236a6200060a8385620030ef565b60006200236a6200060a838562002f43565b6000808060001985870985870292508281108382030391505080600003620029745783828162002969576200296962003105565b04925050506200236a565b838110620029a7576040516307639aaf60e41b8152600481018790526024810186905260448101859052606401620011de565b600084868809600260036001881981018916988990049182028318808302840302808302840302808302840302808302840302808302840302918202909203026000889003889004909101858311909403939093029303949094049190911702949350505050565b60008080600019848609848602925082811083820303915050670de0b6b3a7640000811062002a5c5760405163090638d560e41b81526004810186905260248101859052604401620011de565b6000670de0b6b3a764000085870990508160000362002a8a575050670de0b6b3a76400009004905062001a33565b620400008184030492109003600160ee1b02177faccb18165bd6fe31ae1cf318dc5b51eee0e1ba569b88cd74c1773b91fac1066902905092915050565b6040805160c08101825260008082526020820181905291810182905260608101829052608081018290529060a082015290565b6107c7806200311c83390190565b6020808252825182820181905260009190848201906040850190845b8181101562002b4b5783516001600160a01b03168352928401929184019160010162002b24565b50909695505050505050565b80356001600160a01b038116811462002b6f57600080fd5b919050565b60006020828403121562002b8757600080fd5b6200236a8262002b57565b60008060006060848603121562002ba857600080fd5b62002bb38462002b57565b95602085013595506040909401359392505050565b600060c0828403121562002bdb57600080fd5b50919050565b801515811462000afb57600080fd5b60006020828403121562002c0357600080fd5b81356200236a8162002be1565b60006020828403121562002c2357600080fd5b5035919050565b602080825282518282018190526000919060409081850190868401855b8281101562002c9157815180516001600160a01b03908116865287820151168786015285810151868601526060908101511515908501526080909301929085019060010162002c47565b5091979650505050505050565b6000806040838503121562002cb257600080fd5b8235915062002cc46020840162002b57565b90509250929050565b634e487b7160e01b600052602160045260246000fd5b6002811062002d0257634e487b7160e01b600052602160045260246000fd5b9052565b868152602081018690526001600160a01b03858116604083015284811660608301528316608082015260c0810162002d4260a083018462002ce3565b979650505050505050565b6000806040838503121562002d6157600080fd5b62002d6c8362002b57565b946020939093013593505050565b602080825282518282018190526000919060409081850190868401855b8281101562002c91578151805185528681015187860152858101516001600160a01b03908116878701526060808301518216908701526080808301519091169086015260a0908101519062002def8187018362002ce3565b505060c093909301929085019060010162002d97565b6000806040838503121562002e1957600080fd5b62002e248362002b57565b9150602083013560ff8116811462002e3b57600080fd5b809150509250929050565b634e487b7160e01b600052603260045260246000fd5b634e487b7160e01b600052604160045260246000fd5b80356002811062002b6f57600080fd5b600060c0828403121562002e9557600080fd5b60405160c0810181811067ffffffffffffffff8211171562002ec757634e487b7160e01b600052604160045260246000fd5b8060405250823581526020830135602082015262002ee86040840162002b57565b604082015262002efb6060840162002b57565b606082015262002f0e6080840162002b57565b608082015262002f2160a0840162002e72565b60a08201529392505050565b634e487b7160e01b600052601160045260246000fd5b8181038181111562001a335762001a3362002f2d565b634e487b7160e01b600052603160045260246000fd5b600181815b8085111562002fb057816000190482111562002f945762002f9462002f2d565b8085161562002fa257918102915b93841c939080029062002f74565b509250929050565b60008262002fc95750600162001a33565b8162002fd85750600062001a33565b816001811462002ff1576002811462002ffc576200301c565b600191505062001a33565b60ff84111562003010576200301062002f2d565b50506001821b62001a33565b5060208310610133831016604e8410600b841016171562003041575081810a62001a33565b6200304d838362002f6f565b806000190482111562003064576200306462002f2d565b029392505050565b60006200236a60ff84168362002fb8565b808202811582820484141762001a335762001a3362002f2d565b600060208284031215620030aa57600080fd5b81516200236a8162002be1565b600060018201620030cc57620030cc62002f2d565b5060010190565b60ff828116828216039081111562001a335762001a3362002f2d565b8082018082111562001a335762001a3362002f2d565b634e487b7160e01b600052601260045260246000fdfe6101006040526000805460ff60a81b1916905534801561001e57600080fd5b506040516107c73803806107c783398101604081905261003d916100df565b8282338383838383838383836001600160a01b0383166100925760405162461bcd60e51b815260206004820152600c60248201526b5a45524f5f4144445245535360a01b604482015260640160405180910390fd5b61009c8143610125565b60a052506001600160a01b039081166080819052600080546001600160a01b0319169390921692909217905560e05260c0525061014c9950505050505050505050565b6000806000606084860312156100f457600080fd5b835160208501519093506001600160a01b038116811461011357600080fd5b80925050604084015190509250925092565b8082018082111561014657634e487b7160e01b600052601160045260246000fd5b92915050565b60805160a05160c05160e0516106126101b56000396000818160df015261042a01526000818161012a01528181610265015281816102bb015261038801526000818161015f015281816104cb01526104f70152600081816102f101526103b501526106126000f3fe608060405234801561001057600080fd5b50600436106100885760003560e01c806344df8e701161005b57806344df8e70146101015780637628132914610125578063c0a4d64d1461015a578063e4849b321461018157600080fd5b806303438dd01461008d5780631e0018d6146100a25780633ccfd60b146100d25780634162169f146100da575b600080fd5b6100a061009b36600461056c565b610194565b005b6000546100b5906001600160a01b031681565b6040516001600160a01b0390911681526020015b60405180910390f35b6100a06101be565b6100b57f000000000000000000000000000000000000000000000000000000000000000081565b60005461011590600160a01b900460ff1681565b60405190151581526020016100c9565b61014c7f000000000000000000000000000000000000000000000000000000000000000081565b6040519081526020016100c9565b61014c7f000000000000000000000000000000000000000000000000000000000000000081565b6100a061018f36600461059c565b61035e565b61019c610416565b600080546001600160a01b0319166001600160a01b0392909216919091179055565b600054600160a81b900460ff161561020d5760405162461bcd60e51b815260206004820152600d60248201526c4e4f5f5245454e5452414e435960981b60448201526064015b60405180910390fd5b6000805460ff60a81b1916600160a81b179055610228610469565b610230610496565b6102386104c9565b6102506000805460ff60a01b1916600160a01b179055565b600080546040516001600160a01b03909116917f0000000000000000000000000000000000000000000000000000000000000000917f8353ffcac0876ad14e226d9783c04540bfebf13871e868157d2a391cad98e9189190a360005460405163a140ae2360e01b81527f000000000000000000000000000000000000000000000000000000000000000060048201526001600160a01b0391821660248201527f00000000000000000000000000000000000000000000000000000000000000009091169063a140ae2390604401600060405180830381600087803b15801561033757600080fd5b505af115801561034b573d6000803e3d6000fd5b50506000805460ff60a81b191690555050565b610366610496565b6000546040516324ce9d2760e01b81526001600160a01b0391821660048201527f00000000000000000000000000000000000000000000000000000000000000006024820152604481018390527f0000000000000000000000000000000000000000000000000000000000000000909116906324ce9d2790606401600060405180830381600087803b1580156103fb57600080fd5b505af115801561040f573d6000803e3d6000fd5b5050505050565b61041f33610537565b336001600160a01b037f00000000000000000000000000000000000000000000000000000000000000001614610467576040516282b42960e81b815260040160405180910390fd5b565b600054600160a01b900460ff161561046757604051631251465160e21b8152306004820152602401610204565b61049f33610537565b6000546001600160a01b03163314610467576040516282b42960e81b815260040160405180910390fd5b7f00000000000000000000000000000000000000000000000000000000000000004310156104675761051b437f00000000000000000000000000000000000000000000000000000000000000006105b5565b60405163ce1b725160e01b815260040161020491815260200190565b6001600160a01b03811661056957604051633202e20d60e21b81526001600160a01b0382166004820152602401610204565b50565b60006020828403121561057e57600080fd5b81356001600160a01b038116811461059557600080fd5b9392505050565b6000602082840312156105ae57600080fd5b5035919050565b818103818111156105d657634e487b7160e01b600052601160045260246000fd5b9291505056fea26469706673582212200687691eb0592241e6cd36163dd0f8c99490ef0b4472c02291bf7c68b290a64d64736f6c63430008120033a2646970667358221220a29dfa40c945661dcab91d750a9e674add336ac86839cb2edb9d33e2b084c5a464736f6c63430008120033",
    "linkReferences": {}
  },
  "methodIdentifiers": {
    "addAddressWhitelist(address)": "9d705001",
    "addTokens(address,uint8)": "fe669988",
    "buyOrder(address,uint256,uint256)": "79583e22",
    "buyOrders()": "beb46966",
    "cancelOrder((uint256,uint256,address,address,address,uint8))": "63c084b1",
    "createFuture(address,uint256)": "b93e25a7",
    "dao()": "4162169f",
    "delAddressWhitelist(address)": "d16423df",
    "delTokens(address)": "f1bd5afa",
    "drawer(uint256)": "c237939c",
    "getActivated()": "8893eb13",
    "getBuyPrice()": "018a25e8",
    "getContract(address)": "0ad1c2fa",
    "getContractsByInvestor(address)": "863005e7",
    "getFullDrawer()": "5e678fb1",
    "getLockTime()": "c0a4d64d",
    "getSellPrice()": "43d32e9c",
    "getTokens()": "aa6ca808",
    "getTotalSupplyKG()": "5a64dc01",
    "getWhiteList()": "09a9d76c",
    "getYieldFarming()": "cc3bd18d",
    "mintToken(uint256,address)": "a140ae23",
    "orderBook(uint256)": "a20b6e34",
    "owner()": "8da5cb5b",
    "sellOrder(address,uint256,uint256)": "24ce9d27",
    "sellOrders()": "d21e3f61",
    "updateActive(bool)": "6764120c",
    "updateBuyPrice(uint256)": "7bafc8f1",
    "updateLockTime(uint256)": "fbfa4e11",
    "updateSellPrice(uint256)": "777525d5",
    "updateYieldFarming(uint256)": "d3e2cb08"
  },
  "id": 20
}